:0300000002004CAF
:100008000000E2FBEAF2802C0000E0FBEAF080242A
:10001800E6B50202EBF62200E2B50202EBF222009C
:10002800E0B50202EBF02230F6E0A88220F5D3EA30
:10003800C6F582228B822230F6E6A88220F5D98086
:01004800CFE8
:0300A5000200490D
:030049000200B101
:0D00A80085080A85090B0200DE9000002289
:06007B00E478FFF6D8FD59
:100059007900E94400601B7A0090011A780175A0C3
:1000690000E493F2A308B8000205A0D9F4DAF27506
:02007900A0FFE6
:100081007800E84400600A790175A000E4F309D81A
:10009100FC7800E84400600C7900900001E4F0A3D2
:0400A100D8FCD9FAB4
:1000B5007A10E4FBFCE58225E0F582E58333F583E0
:1000C500EB33FBEC33FCEB950AF5F0EC950B4006B6
:0900D500FCABF0438201DADD22EC
:0D004C0075810B120116E582600302004968
:1000DE00C2D5E58330E70DD2D5E4C39582F582E42F
:1000EE009583F583E50B30E70DB2D5E4C3950AF59C
:1000FE000AE4950BF50B1200B530D50BE4C39582CF
:0C010E00F582E49583F5832275820022BF
:00000001FF
