:0300000002004CAF
:100008000000E2FBEAF2802C0000E0FBEAF080242A
:10001800E6B50202EBF62200E2B50202EBF222009C
:10002800E0B50202EBF02230F6E0A88220F5D3EA30
:10003800C6F582228B822230F6E6A88220F5D98086
:01004800CFE8
:0300A5000200490D
:0300490002013879
:1000A800AE82AF83C3EE9508EF9509E433FE7F0077
:1000B8008E828F8322AE82AF83C3E5089EE5099FB7
:1000C800B39200E433FE7F008E828F8322AE82AF2C
:1000D80083C3E5089EE5099FE433FE7F008E828F87
:1000E8008322AE82AF83C3EE9508EF9509B39201E0
:1000F800E433FE7F008E828F8322AE82AF83EEB51B
:100108000808EFB5090474018001E4FE7F008E82BF
:100118008F8322AE82AF83EEB50807EFB50903D30C
:100128008001C3B39202E433FE7F008E828F832264
:040138009000002211
:06007B00E478FFF6D8FD59
:100059007900E94400601B7A00900140780175A09D
:1000690000E493F2A308B8000205A0D9F4DAF27506
:02007900A0FFE6
:100081007800E84400600A790175A000E4F309D81A
:10009100FC7800E84400600C7900900001E4F0A3D2
:0400A100D8FCD9FAB4
:0D004C0075812012013CE58260030200492D
:04013C0075820022A6
:00000001FF
