:07090900EF2DFFEE3CFE2282
:07091000EF2DFFEE3CFE227B
:0908D700EF24FFFFEE347FFE2246
:0908E000EF24FFFFEE34FFFE22BD
:0808E900C3EF9DFFEE9CFE220F
:0808F100C3EF9DFFEE9CFE2207
:03093300020800B7
:03093600020800B4
:030939000208674A
:0808F900120867AE04AF0522EE
:03093C000208129C
:08090100120812AE04AF05223A
:0F08AD00EFA805088005C333CE33CED8F9FF225C
:10089D00EFA805088006CEA2E713CE13D8F8FF22E5
:0F08BC00EFA805088005CEC313CE13D8F9FF228D
:07091700EF2DFFEE3CFE2274
:07091E00EF2DFFEE3CFE226D
:050925007E807F00222E
:05092A007E7F7FFF222B
:04092F00E4FEFF22C1
:030000000208CB28
:0C08CB00787FE4F6D8FD75810702092F44
:10080000EF8DF0A4A8F0CF8CF0A428CE8DF0A42E0C
:02081000FE22C6
:10081200BC000BBE0029EF8DF084FFADF022E4CCCA
:10082200F875F008EF2FFFEE33FEEC33FCEE9DEC93
:10083200984005FCEE9DFE0FD5F0E9E4CEFD22EDD9
:10084200F8F5F0EE8420D21CFEADF075F008EF2F23
:10085200FFED33FD4007985006D5F0F222C398FD14
:050862000FD5F0EA22B1
:10086700C2D5EC30E709B2D5E4C39DFDE49CFCEEAC
:1008770030E715B2D5E4C39FFFE49EFE120812C30A
:10088700E49DFDE49CFC800312081230D507C3E405
:060897009FFFE49EFE221B
:00000001FF
