:0300000002004CAF
:100008000000E2FBEAF2802C0000E0FBEAF080242A
:10001800E6B50202EBF62200E2B50202EBF222009C
:10002800E0B50202EBF02230F6E0A88220F5D3EA30
:10003800C6F582228B822230F6E6A88220F5D98086
:01004800CFE8
:0300A5000200490D
:030049000200EAC8
:1000A800AF82BF0800E433F58222E58224F7B392D9
:1000B80000E433F58222AF82E4BF030104F5822213
:1000C800AF82BF0303D38001C3B39201E433F58247
:1000D80022E5826004AF088002AF097E008F828E1D
:0600E800832290000022BB
:06007B00E478FFF6D8FD59
:100059007900E94400601B7A009000F2780175A0EC
:1000690000E493F2A308B8000205A0D9F4DAF27506
:02007900A0FFE6
:100081007800E84400600A790175A000E4F309D81A
:10009100FC7800E84400600C7900900001E4F0A3D2
:0400A100D8FCD9FAB4
:0D004C007581201200EEE58260030200497C
:0400EE0075820022F5
:00000001FF
