:0300000002004CAF
:200008000000E2FBEAF2802C0000E0FBEAF08024E6B50202EBF62200E2B50202EBF22200DE
:20002800E0B50202EBF02230F6E0A88220F5D3EAC6F582228B822230F6E6A88220F5D980EE
:01004800CFE8
:0300A5000200490D
:030049000201C7EA
:2000A800AE82AF83E5142EF582E5153FF58322AE82AF83E5142EF582E5153FF58322AE8262
:2000C800AF8374FF2EF582747F3FF58322AE82AF8374FF2EF58274FF3FF58322AE82AF83DA
:2000E800EEC39514F582EF9515F58322AE82AF83EEC39514F582EF9515F583228508148568
:2001080009150201F4850A14850B150201F4850C14850D15020294850E14850F1502025EED
:200128008510148511150201CB851214851315020211AE82AF838514F005F08506828507AF
:2001480083800BE5822582F582E58333F583D5F0F222AE82AF838514F005F085068285079F
:2001680083EF3392D2800CA2D2E58313F583E58213F582D5F0F122AE82AF838514F005F0D2
:20018800850682850783800BC3E58313F583E58213F582D5F0F222AE82AF83E5142EF58230
:2001A800E5153FF58322AE82AF83AC14AD15EC2EF582ED3FF5832290800022907FFF229037
:0301C80000002212
:2001CB007A10E4FBFCE58225E0F582E58333F583EB33FBEC33FCEB9514F5F0EC9515400630
:0901EB00FCABF0438201DADD22D5
:06007B00E478FFF6D8FD59
:200059007900E94400601B7A009002D0780175A000E493F2A308B8000205A0D9F4DAF2757B
:02007900A0FFE6
:1D01F400E5828514F0A4C582C0F08515F0A4D0F025F0C5838514F0A42583F58322A9
:20021100E514451560467A01E51425E0F514E515334012F515E5829514E583951540030A5A
:2002310080E6C3E51513F515E51413F514C3E5829514F5F0E58395154005F58385F082C317
:0D025100E51513F515E51413F514DAE12297
:200081007800E84400600A790175A000E4F309D8FC7800E84400600C7900900001E4F0A37D
:0400A100D8FCD9FAB4
:0D004C007581151202CCE5826003020049A7
:20025E00C2D5E58330E70DD2D5E4C39582F582E49583F583E51530E70BE4C39514F514E4B4
:16027E009515F51512021130D50BE4C39582F582E49583F58322B6
:20029400C2D5E58330E70DD2D5E4C39582F582E49583F583E51530E70DB2D5E4C39514F5ED
:1802B40014E49515F5151201CB30D50BE4C39582F582E49583F58322CD
:0402CC007582002215
:00000001FF
