:0300000002004CAF
:100008000000E2FBEAF2802C0000E0FBEAF080242A
:10001800E6B50202EBF62200E2B50202EBF222009C
:10002800E0B50202EBF02230F6E0A88220F5D3EA30
:10003800C6F582228B822230F6E6A88220F5D98086
:01004800CFE8
:0300A5000200490D
:030049000200F4BE
:1000A800AF82BF080050047582012275820022E5E4
:1000B8008224F740047582012275820022AF82BF34
:1000C80003047582012275820022AF82BF03028079
:1000D800047582012275820022AF828F06BE080055
:1000E80050078F06EE04FF80F28F822290000022D4
:06007B00E478FFF6D8FD59
:100059007900E94400601B7A009000FC780175A0E2
:1000690000E493F2A308B8000205A0D9F4DAF27506
:02007900A0FFE6
:100081007800E84400600A790175A000E4F309D81A
:10009100FC7800E84400600C7900900001E4F0A3D2
:0400A100D8FCD9FAB4
:0D004C007581071200F8E58260030200498B
:0400F80075820022EB
:00000001FF
