:10080000C3EF9DEC6480F8EE6480987E0050037F17
:0508100001227F00221F
:10081500D3EF9DEC6480F8EE6480987E0050037FF2
:0508250001227F00220A
:10082A00D3EF9DEC6480F8EE6480987E0040037FED
:05083A0001227F0022F5
:10083F00C3EF9DEC6480F8EE6480987E0040037FE8
:05084F0001227F0022E0
:10085400EFB50509EEB504057E007F01227E007F19
:02086400002270
:10086600EF6D7002EE6C7E0060037F01227F002236
:04088200E4FEFF226F
:030000000208767D
:0C087600787FE4F6D8FD75810702088247
:00000001FF
